:020000040000FA
:100000000A128A11F52FF100F0013A30710203183B
:100010000F2830307102031C0F28F001F00A700C19
:1000200008000230F4008630F3009930F200F20B41
:100030001728F30B1728F40B17280A168A153322F2
:100040000A128A11D030F0000030F1000A168A1529
:1000500041220A128A111930F0000030F1000A160C
:100060008A1541220A128A110730F0000030F1008F
:100070000A168A1541220A128A110A168A153A228C
:100080000A128A110A168A1533220A128A11D030EE
:10009000F0000030F1000A168A1541220A128A1176
:1000A0006B30F0000030F1000A168A1541220A1266
:1000B0008A110130F0000030F1000A168A15412241
:1000C0000A128A110A168A153A220A128A110A1687
:1000D0008A1533220A128A11D030F0000030F10064
:1000E0000A168A1541220A128A111A30F0000030CD
:1000F000F1000A168A1541220A128A110030F00016
:10010000F1000A168A1541220A128A110A168A1566
:100110003A220A128A110A168A1533220A128A1101
:10012000D030F0000030F1000A168A1541220A1280
:100130008A111B30F0000030F1000A168A154122A6
:100140000A128A111830F0000030F1000A168A15E0
:1001500041220A128A110A168A153A220A128A11B3
:100160000A168A1533220A128A11D030F0000030A4
:10017000F1000A168A1541220A128A113830F0005D
:100180000030F1000A168A1541220A128A11013044
:10019000F0000030F1000A168A1541220A128A1175
:1001A0000A168A153A22080083160313BB00A130F1
:1001B000A5002508AE000130A007FF30200784000D
:1001C0000A168A110A200A128A11A5002508C200FF
:1001D00042080319F02F253042060319FB28420874
:1001E000A5003B0884002508831380000130A5008A
:1001F0002508BB07DB28AF01B001200884000A16E0
:100200008A110A200A128A112E3A031D4829301732
:100210000130A5002508A007BC01BD01200884000D
:100220000A168A110A200A128A110A128A11032058
:100230000A128A11031C5329831603133D08F10087
:100240003C08F0000A30F2000030F3000A168A156C
:1002500097220A128A1183160313200884000A16B3
:100260008A110A200A128A117007A50000300318AB
:1002700001307107A6002508D03EBC0026080318EF
:10028000013EFF3EBD000130A5002508A0070E2954
:10029000BC01BD013016532930157229C030AF049E
:1002A0000030B0047229013083160313A007FF3019
:1002B000200784000A168A110A200A128A11C20035
:1002C000A500A6012608003A03196729DB2825089E
:1002D000003A0319F02F663A03194C29133A03190F
:1002E0004E29DB2800302F05A50007303005A60079
:1002F000250826040319F82E301E82290630BC007A
:100300000030BD002E08840083130008BE00840A5C
:100310000008BF00840A0008C000840A0008C10069
:100320000430A5002508AE074108F3004008F2009C
:100330003F08F1003E08F0000030F7000030F60002
:100340000030F5000030F4000A168A15CA260A1299
:100350008A110318C829831603134108F3004008C3
:10036000F2003F08F1003E08F0000A128A15002052
:100370000A128A11730883160313C1007208C000A1
:100380007108BF007008BE000330AF040030B00435
:1003900083160313B501B6014108F3004008F200CB
:1003A0003F08F1003E08F0000030F7000030F60092
:1003B0000030F5000030F4000A168A1580240A1275
:1003C0008A110318CC2A031083160313400D410D24
:1003D000823EB500FF3003180030B600FF30B5078D
:1003E0000318B60AFF30B6070330F0000030F10002
:1003F0003608F3003508F2000A168A1597220A1209
:100400008A11710883160313B6007008B5000A300C
:10041000F7000030F8003608FA003508F9000A162F
:100420008A1502260A128A11780883160313B60069
:100430007708B500B61F222AFF30B5070318B60AA1
:10044000FF30B6073503FF3A0A128A15B7240A129D
:100450008A1183120313410883160313BA0083120F
:100460000313400883160313B900831203133F08D4
:1004700083160313B800831203133E088316031375
:10048000B700410883120313A70083160313400823
:1004900083120313A600831603133F08831203136A
:1004A000A500831603133E0883120313A4008316CA
:1004B00003133A0883120313AB008316031339089E
:1004C00083120313AA00831603133808831203133D
:1004D000A90083160313370883120313A8000A1216
:1004E0008A15A2210A128A11831203132708831680
:1004F0000313BA0083120313260883160313B900EB
:1005000083120313250883160313B8008312031301
:10051000240883160313B7003A08F3003908F200E1
:100520003808F1003708F0003F30F7008030F6005F
:100530000030F5000030F4000A168A15CA260A12A7
:100540008A110318AB2AFF3083160313B50703186B
:10055000B60AFF30CB2A831603133A08F300390892
:10056000F2003808F1003708F0004130F700203081
:10057000F6000030F5000030F4000A168A15CA268D
:100580000A128A11031CCC2A013083160313B50703
:100590000318B60A0030B607831603133D08803AE5
:1005A000FF0080307F02031DD72A0D303C02031864
:1005B000202B831603133C080A168A11D0230A1233
:1005C0008A11831203134108D5004008D4003F0864
:1005D000D3003E08D200831603134108831203138D
:1005E000D90083160313400883120313D80083161F
:1005F00003133F0883120313D700831603133E0827
:1006000083120313D6000A168A11D1250A128A1101
:1006100083120313550883160313C10083120313B7
:10062000540883160313C000831203135308831660
:100630000313BF0083120313520883160313BE0073
:10064000831603133608803AFF0080307F02031DB3
:100650002B2B0A3035020318782B8316031341081D
:10066000F3004008F2003F08F1003E08F0000030BF
:10067000F7000030F6000030F5000030F4000A16F4
:100680008A1580240A128A110318E12B831603139A
:10069000410883120313D400831603134008831206
:1006A0000313D300831603133F0883120313D200EE
:1006B000831603133E0883120313D1000A168A150A
:1006C0005D260A128A11831203135408530452043C
:1006D0005104031DE12B831603133608803AFF00F3
:1006E00080307F02031D762B02303502031CE12B84
:1006F000831603133A08F3003908F2003808F100B2
:100700003708F0004030F7008930F6007030F5000F
:100710005F30F4000A168A15CA260A128A110318D5
:10072000932BF730942BF83083160313B507031877
:10073000B60AFF30B60735080A128A15B7240A121E
:100740008A1183120313410883160313BA0083121C
:100750000313400883160313B900831203133F08E1
:1007600083160313B800831203133E088316031382
:10077000B7004108F3004008F2003F08F1003E08CE
:10078000F0003A08F7003908F6003808F500370895
:10079000F4000A168A1183210A128A11730883163B
:1007A0000313B4007208B3007108B2007008B100FE
:1007B0000030C1000030C0000030BF000030BE007B
:1007C000652C83160313410883120313D400831688
:1007D0000313400883120313D300831603133F0847
:1007E00083120313D200831603133E0883120313EC
:1007F000D1000A168A155D260A128A118312031384
:10080000540883160313B40083120313530883168A
:100810000313B30083120313520883160313B200A9
:1008200083120313510883160313B1003408F30035
:100830003308F2003208F1003108F00000300A16E7
:100840008A155D270A128A11730883120313E900BF
:100850007208E8007108E7007008E60083160313C9
:10086000410883120313ED0083160313400883121B
:100870000313EC00831603133F0883120313EB00EA
:10088000831603133E0883120313EA000A168A151F
:10089000B8220A128A1183120313690883160313FC
:1008A000C10083120313680883160313C000831268
:1008B0000313670883160313BF008312031366082C
:1008C00083160313BE00B501B601C201C20A420875
:1008D000A50001300310A50DFF3E031D6A2C031077
:1008E000250D693E84000A168A110A200A128A110F
:1008F000A6000A168A110A200A128A11A7000A16EF
:100900008A110A200A128A11A8000A168A110A20DE
:100910000A128A11A90029083402031D992C2808FB
:100920003302031D992C27083202031D992C260837
:100930003102031CA32C0130A5002508C2070A3090
:100940004206031D672C03302F05A500003030053B
:10095000A600250826040319B82C2D30A5003B0855
:1009600084002508831380000130A5002508BB07FB
:100970000130C202420A03194D2D4208A500013080
:100980000310A50DFF3E031DC02C0310250D693E6D
:1009900084000A168A110A200A128A11F0000A1627
:1009A0008A110A200A128A11F1000A168A110A20F5
:1009B0000A128A11F2000A168A110A200A128A11F2
:1009C000F3003408F7003308F6003208F500310868
:1009D000F4000A128A1509200A128A117308831674
:1009E0000313BA007208B9007108B8007008B700A4
:1009F000003083120313A3000030A2000030A100D6
:100A00000A30A000831603133A0883120313A700C9
:100A100083160313390883120313A60083160313E6
:100A2000380883120313A5008316031337088312B3
:100A30000313A4000A168A1560250A128A1183126C
:100A40000313230883160313BA0083120313220827
:100A500083160313B90083120313210883160313AB
:100A6000B80083120313200883160313B700370856
:100A7000303EAE2C303083160313A5003B088400B3
:100A80002508831380000130A5002508BB07FF302F
:100A9000B5070318B60AFF30B6073608803AFF00DC
:100AA00080307F02031D562D0130350203183A2D88
:100AB000831603133D08803AFF0080307F02031D38
:100AC000632D09303C02031C692D08308316031383
:100AD0006C2D831603133C08A5002508C2004208AC
:100AE000A500A6012508BC022608031CBD03BD0203
:100AF00042080319862D2E30A5003B0884002508E6
:100B0000831380000130A5002508BB0742080A12A4
:100B10008A15B7240A128A11831203134108831617
:100B20000313AD0083120313400883160313AC00B4
:100B3000831203133F0883160313AB0083120313BE
:100B40003E0883160313AA002D0883120313AB007B
:100B5000831603132C0883120313AA0083160313AE
:100B60002B0883120313A900831603132A08831288
:100B70000313A80083160313410883120313A7006D
:100B800083160313400883120313A600831603136E
:100B90003F0883120313A500831603133E08831234
:100BA0000313A4000A128A15A2210A128A118312C1
:100BB00003132708D4002608D3002508D2002408F0
:100BC000D1000A168A155D260A128A1183120313B0
:100BD000540883160313B4008312031353088316B7
:100BE0000313B30083120313520883160313B200D6
:100BF00083120313510883160313B1000130C2029C
:100C0000420A0319F32E4208A50001300310A50D76
:100C1000FF3E031D062E0310250D693E84000A16B3
:100C20008A110A200A128A11F0000A168A110A2073
:100C30000A128A11F1000A168A110A200A128A1170
:100C4000F2000A168A110A200A128A11F3003408E7
:100C5000F7003308F6003208F5003108F4000A12F4
:100C60008A1509200A128A11730883160313BA0021
:100C70007208B9007108B8007008B700003083121C
:100C80000313A3000030A2000030A1000A30A0002E
:100C9000831603133A0883120313A7008316031362
:100CA000390883120313A60083160313380883122E
:100CB0000313A50083160313370883120313A4003C
:100CC0000A168A1560250A128A1183120313230853
:100CD00083160313BA008312031322088316031327
:100CE000B90083120313210883160313B80083127B
:100CF0000313200883160313B7003708303EA500FE
:100D00003B0884002508831380000130A5002508D6
:100D1000BB074208A50001300310A50DFF3E031DCF
:100D20008C2E0310250D693E84000A168A110A20B4
:100D30000A128A1183120313A0000A168A110A20CC
:100D40000A128A11A1000A168A110A200A128A11AF
:100D5000A2000A168A110A200A128A11A300831619
:100D60000313340883120313A700831603133308F5
:100D700083120313A600831603133208831203138E
:100D8000A50083160313310883120313A4000A1667
:100D90008A1560250A128A11831203132308831609
:100DA0000313B40083120313220883160313B30042
:100DB00083120313210883160313B2008312031353
:100DC0002008FB2D3030A5003B0884002508831344
:100DD00080000130A5002508BB07FF30BC070318C1
:100DE000BD0AFF30BD073C083D040319DB28E22E95
:100DF0002E08840083130008A500840A0008A600BA
:100E00002508B1002608B200B301B4010230A500E4
:100E10002508AE073C083D04031D1A2F340833048F
:100E200032043104031D1A2F0130BC070318BD0A18
:100E30000030BD07C201C20A4208A50001300310FC
:100E4000A50DFF3E031D1F2F0310250D693E8400D5
:100E50000A168A110A200A128A11A6000A168A1195
:100E60000A200A128A11A7000A168A110A200A12F9
:100E70008A11A8000A168A110A200A128A11A900EA
:100E800029083402031D4E2F28083302031D4E2F5C
:100E900027083202031D4E2F26083102031C582F4B
:100EA0000130A5002508C2070A304206031D1C2F89
:100EB0003D08803A803C031D5F2F3C084202031C22
:100EC000772F831603133D08803AA5008030250252
:100ED000031D6C2F42083C020318772F831603135F
:100EE0004208A500A6012508BC002608BD00033065
:100EF000831603132F05A50000303005A600250832
:100F0000260403198E2F2D30A5003B0884002508E8
:100F1000831380000130A5002508BB07FF30BC0704
:100F20000318BD0AFF30BD073C0A03193D0A031927
:100F3000DB28003083120313A3000030A20000302E
:100F4000A1000A30A000831603133C08A50001305D
:100F50000310A50DFF3E031DA82F0310250D693EAC
:100F600084000A168A110A200A128A11F0000A1651
:100F70008A110A200A128A11F1000A168A110A201F
:100F80000A128A11F2000A168A110A200A128A111C
:100F9000F3003408F7003308F6003208F500310892
:100FA000F4000A128A1509200A128A1173088312A2
:100FB0000313A7007208A6007108A5007008A4001A
:100FC0000A168A1560250A128A1183120313200853
:100FD000303E83160313A6002608C2004208842F61
:100FE0003B0884008313800108008313C63084000B
:100FF000EB300A168A15492283010A128A156728DE
:101000007308720471047004031908008030F30639
:1010100008000030FC000030FB000030FA00003017
:10102000F900730872047104700403195E28FD014D
:10103000FD0AF31B29280130F8000310F00DF10D13
:10104000F20DF30DF80B1D280130F8007808FD07AC
:1010500019280130F8000310F90DFA0DFB0DFC0DF5
:10106000F80B2B2873087702031D402872087602BC
:10107000031D402871087502031D40287008740282
:10108000031C51287008F4027108031C710FF5024B
:101090007208031C720FF6027308031C730FF70229
:1010A000791401300310F30CF20CF10CF00CFF3E3C
:1010B000031D52280130FD02031D29287C08F3007E
:1010C0007B08F2007A08F1007908F00008000A169F
:1010D0008A157E230A128A150A168A155A220A12BE
:1010E0008A15053083160313C3004308F600033046
:1010F0000A168A1513250A128A1583160313550832
:10110000C4005408C3004308C400C3015208430488
:10111000D00053084404D1003C3083120313A700CD
:10112000A030A6009E30A500DC30A4008316031377
:101130004E08F0004F08F1000030F11BFF30F200C4
:10114000F30001300A168A155D270A128A15730802
:1011500083120313AB007208AA007108A90070087B
:10116000A8000A128A15A2210A128A1583120313F3
:10117000270883160313C900831203132608831656
:101180000313C80083120313250883160313C70033
:1011900083120313240883160313C60043308312FB
:1011A0000313A3000330A2000030A1000030A00010
:1011B000831603135008F0005108F1000030F11BB2
:1011C000FF30F200F30001300A168A155D270A127B
:1011D0008A15730883120313A7007208A60071080A
:1011E000A5007008A4000A168A112D220A128A1579
:1011F00083120313230883160313CD0083120313F2
:10120000220883160313CC008312031321088316CC
:101210000313CB0083120313200883160313CA00A1
:10122000A730C3004308A0004908A4004808A30051
:101230004708A2004608A100E2300A128A11D42011
:101240000A128A15AC3083160313C3004308A000AA
:101250005708A2005608A100E7300A128A11D420CC
:101260000A128A15A03083160313C3004308A00096
:101270004D08A4004C08A3004B08A2004A08A10096
:10128000D8300A128A11D4200A128A15F301F30AFF
:1012900002300A168A11C3200A128A15E230F200BF
:1012A0000030F3000A168A15FD220A128A1506304C
:1012B00083160313C3004308F30002300A168A1191
:1012C000C3200A128A15E730F2000030F3000A1634
:1012D0008A15FD220A128A150A3083160313C300E9
:1012E0004308F30002300A168A11C3200A128A1535
:1012F000D830F2000030F3000A168A15FD220A12D7
:101300008A15F301F30A01300A168A11C3200A1262
:101310008A159130F2008030F3000A168A15FD22FA
:101320000A128A15033083160313C5000830C4005F
:101330007630C300C30B9A29C40B9A29C50B9A298E
:1013400000006C288312031327088039AC002C0896
:10135000B1002708AC002C07AD002D08B700A61B74
:10136000371437080319C129370A031DBF29003074
:10137000A7000030A6000030A5000030A400A6178A
:10138000C9290030A7000030A6000030A5000030B9
:10139000A4002B088039AC002C08B1062B08AC0047
:1013A0002C07AD002D08B600AA1B36143608031909
:1013B000E629360A031DE4290030AB000030AA00FC
:1013C0000030A9000030A800AA17EE290030AB00B9
:1013D0000030AA000030A9000030A8003608031D24
:1013E0003708031DFC290030A7000030A60000309C
:1013F000A5000030A40008002408AC002C08F00070
:101400002A080A168A15DA220A128A157108831226
:101410000313BD007008BC003C08AC00AD01AE0178
:10142000AF012F08B5002E08B4002D08B3002C081A
:10143000B2003D08AC00AD01AE01AF012F08BB000A
:101440002E08BA002D08B9002C08B8002508AC00F9
:101450002C08F00029080A168A15DA220A128A15C1
:10146000710883120313BD007008BC003C08AC0077
:10147000AD01AE01AF012C08B2072D08031103180E
:10148000013E031DB3072E0803110318013E031D7F
:10149000B4072F0803110318013E031DB5073D08CB
:1014A000AC00AD01AE01AF012C08B8072D08031147
:1014B0000318013E031DB9072E0803110318013E4E
:1014C000031DBA072F0803110318013E031DBB07B4
:1014D0002608AC002C08F00028080A168A15DA2223
:1014E0000A128A15710883120313BD007008BC002C
:1014F0003C08AC00AD01AE01AF012C08B2072D08CD
:1015000003110318013E031DB3072E08031103182E
:10151000013E031DB4072F0803110318013E031DEC
:10152000B5073D08AC00AD01AE01AF012C08B8070E
:101530002D0803110318013E031DB9072E080311DE
:101540000318013E031DBA072F0803110318013EBB
:10155000031DBB070830AC000310B20DB30DB40D72
:10156000B50DAC0BAC2A2508AC002C08F0002808FF
:101570000A168A15DA220A128A15710883120313D1
:10158000BD007008BC003C08AC003D08AD00AE01D9
:10159000AF012C08B2072D0803110318013E031DEB
:1015A000B3072E0803110318013E031DB4072F08CB
:1015B00003110318013E031DB5072408AC002C08D5
:1015C000F00029080A168A15DA220A128A1571080B
:1015D00083120313BD007008BC003C08AC003D083A
:1015E000AD00AE01AF012C08B2072D08031103189E
:1015F000013E031DB3072E0803110318013E031D0E
:10160000B4072F0803110318013E031DB507083066
:10161000AC000310B20DB30DB40DB50DAC0B092B1E
:101620002408AC002C08F00028080A168A15DA22D3
:101630000A128A15710883120313BD007008BC00DA
:101640003C08AC003D08AD00AE01AF012C08B2076C
:101650002D0803110318013E031DB3072E080311C3
:101660000318013E031DB4072F0803110318013EA0
:10167000031DB5072508AC002C08F0002A080A163F
:101680008A15DA220A128A15710883120313BD0023
:101690007008BC003C08AC003D08AD00AE01AF01D5
:1016A0002C08B8072D0803110318013E031DB907C4
:1016B0002E0803110318013E031DBA072F0803115A
:1016C0000318013E031DBB072608AC002C08F000E0
:1016D00029080A168A15DA220A128A157108831255
:1016E0000313BD007008BC003C08AC003D08AD0011
:1016F000AE01AF012C08B8072D0803110318013EF5
:10170000031DB9072E0803110318013E031DBA0774
:101710002F0803110318013E031DBB072608AC0068
:101720002C08F0002A080A168A15DA220A128A15ED
:10173000710883120313BD007008BC003C08AC00A4
:101740003D08AD00AE01AF0108300310AC0DAD0D8A
:10175000AE0DAF0DFF3E031DA52B2C08B8072D08BD
:1017600003110318013E031DB9072E0803110318C6
:10177000013E031DBA072F0803110318013E031D84
:10178000BB073208AC003308AD003408AE003508A2
:10179000AF0018300310AF0CAE0CAD0CAC0CFF3E1C
:1017A000031DCA2B2C08B8072D0803110318013E8E
:1017B000031DB9072E0803110318013E031DBA07C4
:1017C0002F0803110318013E031DBB070830AC00AE
:1017D0000310B20DB30DB40DB50DAC0BE82B3708EB
:1017E0003607AC00AD01AD0D2C08823EBC002D08C3
:1017F0000318013EFF3EBD00BA1B192C0130AC009E
:101800000310B80DB90DBA0DBB0DAC0B002CB51BF8
:1018100038140130AC000310B20DB30DB40DB50D8A
:10182000AC0B0B2CFF30BC070318BD0AFF30BD0703
:10183000FC2BB601B51F322CFF303205AC00FF3057
:101840003305AD00FF303405AE007F303505AF0005
:101850002F082E042D042C0403193818302C322C98
:10186000B601B60A36080319642C0130B8070030F7
:1018700003180130B907003003180130BA070030EF
:1018800003180130BB073B1C642C3808AC00390836
:10189000AD003A08AE003B08AF000130B0002F0D9C
:1018A000AF0CAE0CAD0CAC0CB00B4F2C2F08BB002A
:1018B0002E08BA002D08B9002C08B8000130BC076A
:1018C0000318BD0A0030BD073D08803AFF00803094
:1018D0007F02031D6D2CFF303C02031C7A2C7F30ED
:1018E00083120313BB008030BA000030B90000300F
:1018F000B800AA2C831203133D08803AFF00803001
:101900007F02031D852C01303C020318932C00300C
:1019100083120313BB000030BA000030B90000305E
:10192000B800B101AA2C831203133C08AC002C08A8
:10193000B700FF30B805FF30B9057F30BA05003079
:10194000BB053718BA173708AC0003102C0CAD00D4
:101950002D08BB003108AC002C08BB043B08A700D5
:101960003A08A6003908A5003808A4000800831228
:101970000313D000D01F5F2ED009D00A5008803A40
:10198000123E031CA92D0A30F7000030F800500861
:10199000F200F301F21BF3036430F0000030F100B9
:1019A0000A168A15C8240A128A157108FA007008E6
:1019B000F9000A168A1502260A128A157708831278
:1019C0000313C20001300310C20DFF3E031DE32CC0
:1019D0000310420D593E84000A168A110A200A1289
:1019E0008A15C3000A168A110A200A128A15C40031
:1019F0000A168A110A200A128A15C5000A168A11C7
:101A00000A200A128A15C6004608A7004508A60043
:101A10004408A5004308A4006430F7000030F80033
:101A20005008F900FA01F91BFA030A168A15022672
:101A30000A128A15770883120313C70001300310B6
:101A4000C70DFF3E031D1F2D0310470D7D3E840073
:101A50000A168A110A200A128A15C8000A168A1163
:101A60000A200A128A15C9000A168A110A200A12C7
:101A70008A15CA000A168A110A200A128A15CB0092
:101A80004B08AB004A08AA004908A9004808A8006A
:101A90000A128A15A2210A128A1583120313270833
:101AA000CF002608CE002508CD002408CC000A303F
:101AB000F0000030F1005008F200F301F21BF303D4
:101AC0000A168A15C8240A128A157008831203138D
:101AD000C20001300310C20DFF3E031D6A2D03102A
:101AE000420D353E84000A168A110A200A128A1510
:101AF000C3000A168A110A200A128A15C4000A169F
:101B00008A110A200A128A15C5000A168A110A20AB
:101B10000A128A15C6004608A7004508A600440810
:101B2000A5004308A4004F08AB004E08AA004D08CA
:101B3000A9004C08A8000A128A15A22183120313D7
:101B40002708C1002608C0002508BF002408BE00E1
:101B500008005008803A753E031C342E0A30F0000D
:101B60000030F1005008F200F301F21BF3030A16F3
:101B70008A15C8240A128A15700883120313C2003A
:101B800001300310C20DFF3E031DC12D0310420D95
:101B9000353E84000A168A110A200A128A15C300EB
:101BA0000A168A110A200A128A15C4000A168A1116
:101BB0000A200A128A15C5000A168A110A200A127A
:101BC0008A15C6004608A7004508A6004408A500D7
:101BD0004308A4000A30F7000030F8005008F9006C
:101BE000FA01F91BFA030A168A1502260A128A1547
:101BF000770883120313C70001300310C70DFF3E9F
:101C0000031DFD2D0310470D593E84000A168A114D
:101C10000A200A128A15C8000A168A110A200A1216
:101C20008A15C9000A168A110A200A128A15CA00E2
:101C30000A168A110A200A128A15CB004B08AB003B
:101C40004A08AA004908A9004808A8000A128A15EB
:101C5000A221831203132708C1002608C00025080B
:101C6000BF002408BE0008005008C2000130031065
:101C7000C20DFF3E031D372E0310420D353E84007A
:101C80000A168A110A200A128A15C3000A168A1136
:101C90000A200A128A15C4000A168A110A200A129A
:101CA0008A15C5000A168A110A20C6004608C10016
:101CB0004508C0004408BF004308BE0008005008A3
:101CC000803A123E031C4A2F0A30F7000030F80019
:101CD0005008F200F301F21BF3036430F00000300F
:101CE000F1000A168A15C8240A128A157108FA002A
:101CF0007008F9000A168A1502260A128A15770852
:101D000083120313C20001300310C20DFF3E031DF6
:101D1000842E0310420D253E84000A168A110A20E3
:101D20000A128A15C3000A168A110A200A128A1595
:101D3000C4000A168A110A200A128A15C5000A165A
:101D40008A110A200A128A15C6004608A70045080B
:101D5000A6004408A5004308A4006430F700003042
:101D6000F8005008F900FA01F91BFA030A168A155F
:101D700002260A128A15770883120313C70001305E
:101D80000310C70DFF3E031DC02E0310470D493E33
:101D900084000A168A110A200A128A15C8000A1637
:101DA0008A110A200A128A15C9000A168A110A2005
:101DB0000A128A15CA000A168A110A200A128A15FE
:101DC000CB004B08AB004A08AA004908A900480804
:101DD000A8000A128A15A2210A128A158312031377
:101DE0002708CF002608CE002508CD002408CC0007
:101DF0000A30F0000030F1005008F200F301F21B4D
:101E0000F3030A168A15C8240A128A157008831269
:101E10000313C20001300310C20DFF3E031D0B2F40
:101E20000310420D013E84000A168A110A200A128C
:101E30008A15C3000A168A110A200A128A15C400DC
:101E40000A168A110A200A128A15C5000A168A1172
:101E50000A200A128A15C6004608A7004508A600EF
:101E60004408A5004308A4004F08AB004E08AA0090
:101E70004D08A9004C08A8000A128A15A221831255
:101E800003132708C1002608C0002508BF00240846
:101E9000BE0008005008803A753E031CD52F0A305A
:101EA000F0000030F1005008F200F301F21BF303E0
:101EB0000A168A15C8240A128A1570088312031399
:101EC000C20001300310C20DFF3E031D622F03103C
:101ED000420D013E84000A168A110A200A128A1550
:101EE000C3000A168A110A200A128A15C4000A16AB
:101EF0008A110A200A128A15C5000A168A110A20B8
:101F00000A128A15C6004608A7004508A60044081C
:101F1000A5004308A4000A30F7000030F80050087C
:101F2000F900FA01F91BFA030A168A1502260A12A9
:101F30008A15770883120313C70001300310C70DF9
:101F4000FF3E031D9E2F0310470D253E84000A16F9
:101F50008A110A200A128A15C8000A168A110A2054
:101F60000A128A15C9000A168A110A200A128A154D
:101F7000CA000A168A110A200A128A15CB004B08D9
:101F8000AB004A08AA004908A9004808A8000A129C
:101F90008A15A221831203132708C1002608C00056
:101FA0002508BF002408BE0008005008C200013008
:101FB0000310C20DFF3E031DD82F0310420D013E3A
:101FC00084000A168A110A200A128A15C3000A160A
:101FD0008A110A200A128A15C4000A168A110A20D8
:101FE0000A128A15C5000A168A110A20C600460878
:101FF000C1004508C0004408BF004308BE000800F7
:10200000FF1B0A2883137F1883170008840A03190B
:10201000FF0A080010308A000408840A820700348E
:102020000034003480343F340034003420344134F0
:1020300000340034C8344234003400347A34443438
:10204000003440341C34463400345034C3344734F4
:1020500000342434743449348034963418344B3486
:102060002034BC34BE344C3428346B346E344E349B
:10207000F934023415345034EC347834AD346034EF
:10208000CA34F234493471340034003480343F347B
:10209000CD34CC34CC343D340A34D73423343C34BE
:1020A0006F34123483343A341734B734D13438347B
:1020B000AC34C53427343734BD3437348634353402
:1020C0009534BF34D63433347734CC342B34323473
:1020D0005F34703489343034FF34E634DB342E34EA
:1020E0000834E5343C341E3460344234A2340D34B8
:1020F00001340034003400340A3400340034003435
:102100006434003400340034E834033400340034E0
:102110001034273400340034A034863401340034C1
:10212000403442340F3400348034963498340034D0
:102130000034E134F53405340034CA349A343B3485
:102140004134443443342034203420344E34553424
:102150004D342034203449344D3455340034253442
:102160002E343234663420342034003425342E3476
:0C217000313466340034253475340034FA
:10218600F6007603031DCC2873087F3EF40074081E
:10219600F50002307606031DD5287308BF3EF4000D
:1021A6007408F50075080A168A1583220800700857
:1021B600F8007108F9007208FA000310790D7A0D1B
:1021C600FB007B0883120313A5002508031DF428D2
:1021D6000030F3000030F2000030F1000030F00073
:1021E60008007408F8007508F9007608FA0003106C
:1021F600790D7A0DFB007B08A40024080319EB284F
:10220600F117FF30F005FF30F1050030F205F51744
:10221600FF30F405FF30F5050030F6050030A30069
:102226000030A2000030A1000030A0007F30A502DF
:1022360098302407F8007808A5021830F8007808C6
:10224600A4000130F8000310A00DA10DA20DA30DEE
:10225600F80B262976087202031D372975087102C4
:10226600031D372974087002031C44297408F00200
:102276007508031C750FF1027608031C760AF20234
:10228600201401300310F00DF10DF20DFF3E031D79
:1022960045290130A402031D2429A51F6729250805
:1022A600803A973E031CEB2801300310A30CA20CC6
:1022B600A10CA00CFF3E031D58290130F800780838
:1022C600A50703197A295729183025020318EB2880
:1022D600250803197A290130F8000310A00DA10D75
:1022E600A20DA30DF80B70290130A5026B29230856
:1022F600F3002208F2002108F1002008F00008008F
:102306000310720D730DF800780883120313A500ED
:102316002508031D97290030F3000030F200003035
:10232600F1000030F00008000310760D770DF8007C
:102336007808A400240803198E29F217FF30F00547
:10234600FF30F105FF30F2050030F305F617FF30D8
:10235600F405FF30F505FF30F6050030F7050030CF
:10236600A3000030A2000030A1000030A0007F30A2
:10237600A502A0302407F8007808A5022030F8004E
:102386007808A4000130F8000310A00DA10DA20DDD
:10239600A30DF80BC72977087302031DDC297608FD
:1023A6007202031DDC2975087102031DDC297408FD
:1023B6007002031CED297408F0027508031C750FE2
:1023C600F1027608031C760FF2027708031C770FDA
:1023D600F30220140130F8000310F00DF10DF20D98
:1023E600F30DF80BEF290130A402031DC529A51F23
:1023F600112A2508803A9F3E031C8E2901300310BE
:10240600A30CA20CA10CA00CFF3E031D022A013056
:10241600F8007808A5070319242A012A2030250286
:1024260003188E2925080319242A0130F800031001
:10243600A00DA10DA20DA30DF80B1A2A0130A502BD
:10244600152A2308F3002208F2002108F1002008CB
:10245600F00008008312031327088039A800280813
:10246600B1002708A8002807A9002908B800A61B5C
:102476003814380803194D2A380A031D4A2A003031
:10248600A7000030A6000030A5000030A400A61763
:10249600A701552A0030A7000030A6000030A5008D
:1024A6000030A40023088039A8002808B1062308B4
:1024B600A8002807A9002908B900A21B3914390861
:1024C6000319732A390A031D702A0030A30000304D
:1024D600A2000030A1000030A000A217A3017B2AB1
:1024E6000030A3000030A2000030A1000030A000A0
:1024F6002308220421042004031D9A2A0030A70081
:102506000030A6000030A5000030A4008030A604EC
:102516007F30A7043108A8002808A7042708A300CD
:102526002608A2002508A1002408A00008003808F3
:10253600031DA62A0030A3000030A2000030A1002F
:102546000030A00008003808A800A9012908AB003F
:1025560039082802AA00031CAB032A087F3EB200F2
:102566002B080318013E003EB3002708B0002608DA
:10257600AF002508AE002408AD000030A7000030EB
:10258600A6000030A5000030A4000030B7000030DF
:10259600B6000030B5000030B400B9011A30390277
:1025A6000318192B39080319F52A0130A80003105E
:1025B600AD0DAE0DAF0DB00DA80BDA2A0130A80097
:1025C6000310A40DA50DA60DA70DA80BE32AB71B96
:1025D60024140130A8000310B40DB50DB60DB70DC7
:1025E600A80BEE2A23083002031D032B22082F0214
:1025F600031D032B21082E02031D032B20082D0289
:10260600031C142B37172008AD022108031C210FC9
:10261600AE022208031C220FAF022308031C230F5D
:10262600B0020130A8002808B907D12A30082F04C3
:102636002E042D04031D3414A61B3C2B0130A800C8
:102646000310A40DA50DA60DA70DA80B232BB71BD4
:1026560024140130A8000310B40DB50DB60DB70D46
:10266600A80B2E2BFF30B2070318B30AFF30B307AF
:102676001F2BB901B71F552BFF303405A800FF30BB
:102686003505A900FF303605AA007F303705AB00B7
:102696002B082A042904280403192418532B552B24
:1026A600B901B90A39080319872B0130A40700308C
:1026B60003180130A507003003180130A6070030C3
:1026C60003180130A707271C872B2408A800250814
:1026D600A9002608AA002708AB000130AC002B0D84
:1026E600AB0CAA0CA90CA80CAC0B722B2B08A700E0
:1026F6002A08A6002908A5002808A4000130B20768
:102706000318B30A0030B3073308803AFF0080305D
:102716007F02031D902BFF303202031CA02BFF30DB
:1027260083120313B2000030B3000030A70000305C
:10273600A6000030A5000030A4008312031333085E
:10274600803AFF0080307F02031DAB2B013032023E
:102756000318BA2B83120313B201B3010030A7008A
:102766000030A6000030A5000030A400B10183129D
:1027760003133208A8002808B800381CC42BA61773
:10278600C82B7F30A8002808A6053808A800031023
:10279600280CA9002908A7008D2A83120313D1004B
:1027A6006E305102031CE22C3F30A7000030A60019
:1027B6000030A5000030A4006430F6000030F700B9
:1027C6005108C200C3014208F8004308F9000A167E
:1027D6008A1544240A168A11760883120313C40044
:1027E60001300310C40DFF3E031DF42B0310440DEE
:1027F6007D3E84000A168A110A200A168A11C5002F
:102806000A168A110A200A168A11C6000A168A11A1
:102816000A200A168A11C7000A168A110A200A1601
:102826008A11C8004808AB004708AA004608A90054
:102836004508A8000A128A15A2210A168A118312CF
:1028460003132708D0002608CF002508CE00240849
:10285600CD000A30F6000030F7005108C200C3016F
:102866004208F2004308F3006430F0000030F10043
:102876000A168A15DC230A168A117108F9007008EF
:10288600F8000A168A1544240A168A117608831255
:102896000313C40001300310C40DFF3E031D4E2C6C
:1028A6000310440D593E84000A168A110A200A169E
:1028B6008A11C5000A168A110A200A168A11C6004C
:1028C6000A168A110A200A168A11C7000A168A11E0
:1028D6000A200A168A11C8004808A7004708A60059
:1028E6004608A5004508A4005008AB004F08AA00FA
:1028F6004E08A9004D08A8000A128A15A2210A1638
:102906008A11831203132708CC002608CB0025085A
:10291600CA002408C9000A30F0000030F10051084E
:10292600C200C3014208F2004308F3000A168A15E2
:10293600DC230A168A11700883120313C4000130BF
:102946000310C40DFF3E031DA32C0310440D353E9A
:1029560084000A168A110A200A168A11C5000A1668
:102966008A110A200A168A11C6000A168A110A2036
:102976000A168A11C7000A168A110A200A168A112F
:10298600C8004808A7004708A6004608A50045084D
:10299600A4004C08AB004B08AA004A08A900490845
:1029A600A8000A128A15A221831203132708C10060
:1029B6002608C0002508BF002408BE0008000B300A
:1029C6005102031C8F2D3F30A7000030A6000030B7
:1029D600A5000030A4000A30F6000030F7005108C8
:1029E600C200C3014208F8004308F9000A168A1516
:1029F60044240A168A11760883120313C400013090
:102A06000310C40DFF3E031D032D0310440D593E54
:102A160084000A168A110A200A168A11C5000A16A7
:102A26008A110A200A168A11C6000A168A110A2075
:102A36000A168A11C7000A168A110A200A168A116E
:102A4600C8004808AB004708AA004608A900450880
:102A5600A8000A128A15A2210A168A1183120313E4
:102A66002708D0002608CF002508CE002408CD0070
:102A76000A30F0000030F1005108C200C3014208DC
:102A8600F2004308F3000A168A15DC230A168A1197
:102A9600700883120313C40001300310C40DFF3EF7
:102AA600031D502D0310440D353E84000A168A116D
:102AB6000A200A168A11C5000A168A110A200A1661
:102AC6008A11C6000A168A110A200A168A11C70038
:102AD6000A168A110A200A168A11C8004808A70091
:102AE6004708A6004608A5004508A4005008AB0004
:102AF6004F08AA004E08A9004D08A8000A128A1518
:102B0600A221831203132708C1002608C000250846
:102B1600BF002408BE0008003F30A7000030A60012
:102B26000030A5000030A4005108C2000130031097
:102B3600C20DFF3E031D9A2D0310420D353E840043
:102B46000A168A110A200A168A11C3000A168A1161
:102B56000A200A168A11C4000A168A110A200A16C1
:102B66008A11C5000A168A110A200A168A11C60099
:102B76004608AB004508AA004408A9004308A80077
:102B86000A128A15A221831203132708C1002608F8
:102B9600C0002508BF002408BE00080083120313E6
:102BA60055088039DA005A08E2005508DA005A0753
:102BB600DB005B08E400D41B641464080319F12DE0
:102BC600640A031DEE2D0030D5000030D40000301D
:102BD600D3000030D200D417D501F92D0030D5002E
:102BE6000030D4000030D3000030D20059088039BC
:102BF600DA005A08E30063086206031D62175908E3
:102C0600DA005A07DB005B08E300D81B631463088D
:102C160003191B2E630A031D182E0030D90000303D
:102C2600D8000030D7000030D600D817D901232E9F
:102C36000030D9000030D8000030D7000030D60070
:102C4600640863020318692E621F2D2E8030DA0095
:102C56005A08E2066408DA005A08E5006308DA0052
:102C66005A08E4006508DA005A08E3005208DA0058
:102C76005A08E5005608DA005A08D2006508DA0054
:102C86005A08D6005308DA005A08E5005708DA0051
:102C96005A08D3006508DA005A08D7005408DA0043
:102CA6005A08E5005808DA005A08D4006508DA0020
:102CB6005A08D8005508DA005A08E5005908DA001B
:102CC6005A08D5006508DA005A08D900E5016308F4
:102CD600DA00DB015B08DD0064085A02DC00031C35
:102CE600DD035D08803AFF0080307F02031D7D2EE4
:102CF6001A305C02031CB62E8312031355085404C3
:102D0600530452040319892E01308A2E0030DA004A
:102D16005A08E5000030D5000030D4000030D3005A
:102D26000030D2006308DA005A08E400BC2E651CA5
:102D3600A52E6508DA0003105A0C0138DB005B0883
:102D4600E500A72E0310E50C5218E5170130DA004E
:102D5600550DD50CD40CD30CD20CDA0BAB2E01309E
:102D6600DA005A08E4078312031363086402031C9B
:102D76009A2E621BFD2E6408031DCA2E0030D50054
:102D86000030D4000030D3000030D20008005608CE
:102D9600D207570803110318013E031DD30758082D
:102DA60003110318013E031DD40759080311031824
:102DB600013E031DD507551C9F2F651CEB2E65088C
:102DC600DA0003105A0C0138DB005B08E500ED2E33
:102DD6000310E50C5218E5170130DA00550DD50C35
:102DE600D40CD30CD20CDA0BF12E0130DA005A08CF
:102DF600E4079F2F5508803AFF005908803A7F0262
:102E0600031D0F2F58085402031D0F2F5708530296
:102E1600031D0F2F560852020318672FFF30DA00E2
:102E2600FF30DB00FF30DC00FF30DD005608DE003F
:102E36005708DF005808E0005908E1005208DE0292
:102E46005308031C530F282F292FDF025408031C95
:102E5600540F2E2F2F2FE0025508031C550F342F29
:102E6600352FE1025E08DA075F0803185F0F3C2F73
:102E76003D2FDB0760080318600F422F432FDC0746
:102E860061080318610ADD075D08D5005C08D400F7
:102E96005B08D3005A08D2008030DA005A08E206EE
:102EA600E509E50A6508031D752F0130D2070030D4
:102EB60003180130D307003003180130D40700305F
:102EC60003180130D507752F5608D2025708031C80
:102ED600570FD3025808031C580FD4025908031C75
:102EE600590FD5025508540453045204031D9D2F4F
:102EF6006508031D9D2F0030D5000030D40000303A
:102F0600D3000030D20008000130DA000310D20DE1
:102F1600D30DD40DD50DDA0B892FE51B5214651C84
:102F2600962F0314972F0310E50D640803199D2FA0
:102F36000130E402D41F872FE301E51FAA2F65089D
:102F46007F3903195218A82FAA2FE301E30A630851
:102F56000319DD2F0130D207003003180130D307E3
:102F6600003003180130D407003003180130D507AC
:102F7600551CDD2F5208DA005308DB005408DC002C
:102F86005508DD000130DE005D0DDD0CDC0CDB0CD0
:102F9600DA0CDE0BC72F5D08D5005C08D4005B0891
:102FA600D3005A08D200640A0319DD2F0130DA0073
:102FB6005A08E407640A031D6408031DED2F003058
:102FC600D5000030D4000030D3000030D2006408B1
:102FD6000319E201641CF12FD417F52F7F30DA00B4
:102FE6005A08D4056408DA0003105A0CDB005B08A3
:0A2FF600D500E21F0800D5170800FF
:103466000A168A15512283160313111408000A1628
:103476008A15512283160313111508000A168A1598
:103486005122700883120313930008006400800120
:10349600840A04060319003404064A2A8316031311
:1034A6001419512A11081F3903190800512A00302E
:1034B6000A168A1583220A168A1501300A168A15F3
:1034C60083220800F1007108F000F00E8316031342
:1034D6000F0870068F3970068F000F148F110800C1
:1034E600F1008312031385147108860005141A303F
:1034F600F000F00B7C2A000083120313051008006D
:10350600F2008312031385107208860005140B302F
:10351600F1006230F000F00B8E2AF10B8E2A0000CB
:103526008312031305100800F401F501701CA12A8B
:103536007208F4070318F50A7308F507013003103B
:10354600F20DF30DFF3E031DA22A01300310F10C0C
:10355600F00CFF3E031DA92A70087104031D992A69
:103566007508F1007408F000080080308312031318
:10357600E9066D08D5006C08D4006B08D3006A080C
:10358600D2006908D9006808D8006708D70066081D
:10359600D6000A168A11D125831203135508E900AD
:1035A6005408E8005308E7005208E6000800F8004F
:1035B600F401F5017008F200F3017208F6007308D1
:1035C600F700781CEC2A7608F4070318F50A770842
:1035D600F50701300310F60DF70DFF3E031DED2A2A
:1035E6000310F80C7808031DE42A7508F100740826
:1035F600F0000800F50175087207840073080318C7
:10360600730A83120313FF000A168A1100200A1692
:103616008A15003A031908007508720784007308B2
:103626000318730AFF000A168A1100200A168A1563
:103636000A168A1573220A168A150130F4007408D0
:10364600F507FE2A0A168A1551220A168A158316C6
:10365600031391150A168A1551220A168A15831222
:1036660003131308F200F3017208F4007308F5005F
:103676000A168A1551220A168A1570037104031D4B
:10368600482B8316031391124B2B831603139116A3
:1036960011167508F1007408F0000800F4000A1607
:1036A6008A1533220A168A15D030F0000030F10050
:1036B6000A168A1541220A168A157408F200F301C1
:1036C6007208F0007308F1000A168A1541220A16DC
:1036D6008A150A168A153A220A168A150A168A15AC
:1036E60033220A168A15D130F0000030F1000A168E
:1036F6008A154122080007300A168A1565220A161D
:103706008A1583160313850186018316031788011C
:1037160089018312031385010A168A15AE250A1636
:103726008A15003083120313A3000130A2008630ED
:10373600A100A030A0000A168A150E240A168A15C2
:103746000A128A11112083160313D601D701080025
:1037560043300A168A1551230A168A150030F000DE
:10376600F1000A168A1525230A168A15710883168A
:103776000313D5007008D4000A168A153A220A16D1
:103786008A1544300A168A1551230A168A150030FE
:10379600F000F1000A168A1525230A168A15710803
:1037A60083160313D3007008D2000A168A153A222C
:1037B6000800700871040319092CF501F50AF11BBC
:1037C600F02B01300310F00DF10DFF3E031DE52B2C
:1037D6000130F4007408F507E22B71087302031D2B
:1037E600F62B70087202031CFE2B7008F202710899
:1037F600031CF303F30201300310F10CF00CFF3E3F
:10380600031DFF2B0130F502031DF02B7308F10099
:103816007208F00008002830831203139400831600
:1038260003139101831203132008A4002108A500A5
:103836002208A6002308A70002300310A40DA50D38
:10384600A60DA70DFF3E031D202C2708F300260812
:10385600F2002508F1002408F0000030F7007A3065
:10386600F6001230F5000030F4000A128A1509201D
:103876007008FF3E831603139300940187150716FD
:103886000800FB01FC017608770403197B2CFD0177
:10389600FD0AF71B5A2C01300310F60DF70DFF3EFB
:1038A600031D4F2C0130FA007A08FD074C2C01301D
:1038B6000310FB0DFC0DFF3E031D5B2C7708790200
:1038C600031D672C76087802031C702C7608F80214
:1038D6007708031CF903F9027B1401300310F70C77
:1038E600F60CFF3E031D712C0130FD02031D5A2C00
:1038F6007C08F7007B08F600080000307005F80029
:1039060000307105F90080307205FA007F307305CA
:10391600FB007B087A0479047804031D9A2C003096
:10392600F3000030F2000030F1000030F00000300B
:103936007405F80000307505F90080307605FA0048
:103946007F307705FB007B087A0479047804031D31
:10395600B42C0030F7000030F6000030F5000030DF
:10396600F40077087306031DC22C76087206031D41
:10397600C22C75087106031DC22C74087006031943
:10398600C62C0310080003140800F601F31FD22CFE
:10399600F209F309F20A0319F30AF601F60AF11F0E
:1039A600D92CF009F109F00A0319F10A700871041B
:1039B6000319062DF501F50AF11BED2C0130031054
:1039C600F00DF10DFF3E031DE22C0130F4007408EA
:1039D600F507DF2C71087302031DF32C70087202C1
:1039E600031CFB2C7008F2027108031CF303F3029C
:1039F60001300310F10CF00CFF3E031DFC2C0130CE
:103A0600F502031DED2C760803190E2DF209F309B4
:103A1600F20A0319F30A7308F1007208F0000800AD
:103A2600F9000A168A1533220A168A157608F7004F
:103A3600F8017708F0007808F1000A168A15412285
:103A46000A168A150030F000F1000A168A15252399
:103A56000A168A15710883160313CF007008CE0064
:103A66000A168A153A220A168A150A168A15332262
:103A76000A168A157908F700F8017708F000780821
:103A8600F1000A168A1541220A168A150030F0003E
:103A9600F1000A168A1525230A168A157108831657
:103AA6000313D7007008D6000A168A153A220A169A
:103AB6008A150A168A15AB230800831203132308F6
:103AC6002204210420040319A52DA901A90AA31B78
:103AD6007A2D0130A8000310A00DA10DA20DA30D93
:103AE600A80B6E2D0130A8002808A9076A2D230807
:103AF6002702031D882D22082602031D882D210872
:103B06002502031D882D20082402031C982D200859
:103B1600A4022108031C210FA5022208031C220F60
:103B2600A6022308031C230FA70201300310A30CCF
:103B3600A20CA10CA00CFF3E031D992D0130A90279
:103B4600031D7A2D2708A3002608A2002508A10038
:103B56002408A00008008312031386013430F40001
:103B6600F130F300F30BB52DF40BB52DBA2D303033
:103B76000A168A1583220A168A150D30F400FB30C0
:103B8600F300F30BC42DF40BC42DC92D30300A16E7
:103B96008A1583220A168A156D30F300F30BD12D90
:103BA600D42D30300A168A1583220A168A156D30EE
:103BB600F300F30BDC2DDF2D38300A168A1583222D
:103BC6000A168A1514300A168A1583220A168A15C9
:103BD60001300A168A1583220A168A1506300A1635
:103BE6008A1583220A168A150C300A168A1583222C
:103BF6000A168A1502300A168A15832208008312CD
:103C06000313A101F81F0E2EF709F809F70A031985
:103C1600F80AA101A10AFA1F192EF909FA09F90AE7
:103C26000319FA0A0130FB007B08A106A201A301D1
:103C3600770878040319502EA001A00AF81B2F2E2E
:103C460001300310F70DF80DFF3E031D242E013041
:103C5600FB007B08A007212E01300310A20DA30D47
:103C6600FF3E031D302E78087A02031D3C2E77088E
:103C76007902031C452E7708F9027808031CFA031B
:103C8600FA02221401300310F80CF70CFF3E031D54
:103C9600462E0130A002031D2F2E21080319582E8F
:103CA600A209A309A20A0319A30A2308F8002208F5
:103CB600F7000800031083120313530D540DD500AB
:103CC6005508DB005B08031D712E0030D400003060
:103CD600D3000030D2000030D10008005108D500D2
:103CE6005208D6005308D7005408D8001F300310D6
:103CF600D80CD70CD60CD50CFF3E031D7A2E5508D2
:103D0600D9005908DA00D317FF30D105FF30D205A4
:103D1600FF30D3050030D4059630DB02DB1FA82E1A
:103D26005B08803A973E031C682E01300310D40CC2
:103D3600D30CD20CD10CFF3E031D992E0130D500B9
:103D46005508DB070319BB2E982E20305B0203189B
:103D5600682E5B080319BB2E0130D5000310D10D68
:103D6600D20DD30DD40DD50BB12E0130DB02AC2E06
:103D76005A0803190800D109D209D309D409D10A6E
:103D86000319D20A0319D30A0319D40A080000300A
:103D96007005F80000307105F90080307205FA00F0
:103DA6007F307305FB007B087A0479047804031DD1
:103DB600E42E0030F3000030F2000030F100003055
:103DC600F00000307405F80000307505F900803009
:103DD6007605FA007F307705FB007B087A047904C4
:103DE6007804031DFE2E0030F7000030F600003088
:103DF600F5000030F400F31F242F0030F8000030E7
:103E0600F9000030FA008030FB007008F8027108F3
:103E1600031C710F0F2F102FF9027208031C720F6B
:103E2600152F162FFA027308031C730F1B2F1C2F56
:103E3600FB027B08F3007A08F2007908F1007808A3
:103E4600F000F71F4A2F0030F8000030F90000306C
:103E5600FA008030FB007408F8027508031C750F21
:103E6600352F362FF9027608031C760F3B2F3C2F91
:103E7600FA027708031C770F412F422FFB027B08BB
:103E8600F7007A08F6007908F5007808F400803023
:103E9600F3068030F70677087302031D08007608DC
:103EA6007202031D080075087102031D08007408DC
:103EB60070020800F8007808031DF31F722F7009BE
:103EC600FA007109FB007209FC007309FD00FA0A89
:103ED6000319FB0A0319FC0A0319FD0A7A2F730852
:103EE600FD007208FC007108FB007008FA007308F8
:103EF600720471047004031D892F0030F300003032
:103F0600F2000030F1000030F00008009630F400B6
:103F16007408F900FE307D050319BA2F0130F4004C
:103F26007408F90701300310FD0CFC0CFB0CFA0CAD
:103F3600FF3E031D962F8D2F0130F4007408F907FC
:103F46000130FA07003003180130FB070030031870
:103F56000130FC07003003180130FD070130031063
:103F6600FD0CFC0CFB0CFA0CFF3E031DB22FFF30C0
:103F76007D050319CE2F9F2F02307902031CD02F07
:103F86000130F9020130F4000310FA0DFB0DFC0DAF
:103F9600FD0DF40BC72FFC1FBF2F7918DA2FFF304A
:103FA600FA05FF30FB057F30FC05FF30FD050310E9
:103FB600F90C7908F400F501F601F7011830031041
:103FC600F40DF50DF60DF70DFF3E031DE22F7408F7
:103FD600FA047508FB047608FC047708FD047808E3
:103FE600031DF31FF72FFD177D08F3007C08F20071
:0A3FF6007B08F1007A08F0000800D3
:04400E00D4E0FFFFFC
:00000001FF
